010000001000000001descricao item                                    0000000000000000110000000000000000000000000000000000000000000000000000000000000000000000
010000002000000001item 2                                            0000000000000000110000000000000000000000000000000000000000000000000000000000000000000000
010555555000000777FFFFFFFFFFFFFFFFFFFFFFFFFGGGGGGGGGGGGGGGGGGGGGGGGG0000000000000000110000000000000000000000000000000000000000000000000000000000000000000000
010666666000000888JJJJJJJJJJJJJJJJJJJJJJJJJMMMMMMMMMMMMMMMMMMMMMMMMM0000000000000000110000000000000000000000000000000000000000000000000000000000000000000000
0100000189000245000TE 90 REDUCAO SOLD 25X20MM FORTLEV               0000000000000000110000000000000000000000000000000000000000000000000000000000000000000000